:100000000C9434000C9451000C9451000C94510049
:100010000C9451000C9451000C9451000C9451001C
:100020000C9451000C9451000C9451000C9451000C
:100030000C9451000C9451000C9451000C945100FC
:100040000C9451000C9451000C9451000C945100EC
:100050000C9451000C9451000C9451000C945100DC
:100060000C9451000C94510011241FBECFEFD8E026
:10007000DEBFCDBF11E0A0E0B1E0E2E1F4E002C0FC
:1000800005900D92A033B107D9F721E0A0E3B1E0CC
:1000900001C01D92A833B207E1F70E94C6010C947B
:1000A00007020C940000611102C0299801C0299A2E
:1000B0009BB19F70282F207F922B9BB945E04A95DA
:1000C000F1F70000289A95E09A95F1F7000028983A
:1000D00040EF4A95F1F72BB1922F9F7040E1849F3A
:1000E00090011124292B2BB995E09A95F1F7000086
:1000F000289A45E04A95F1F70000289890EF9A95E4
:10010000F1F7611108C0843030F48FE39FE101976B
:10011000F1F700C000000895299828982FEF89EF83
:1001200090E0215080409040E1F700C000008BB18A
:100130008F7080638BB925E02A95F1F70000289A2B
:1001400085E08A95F1F70000289890EF9A95F1F7ED
:100150008FE19EE40197F1F700C0000095E09A95C9
:10016000F1F70000289A25E02A95F1F70000289879
:1001700080EF8A95F1F78FE193E00197F1F700C0E6
:10018000000095E09A95F1F70000289A25E02A955D
:10019000F1F70000289880EF8A95F1F78BB18F7006
:1001A00080628BB995E09A95F1F70000289A25E0D6
:1001B0002A95F1F70000289880EF8A95F1F760E022
:1001C00088E20E94530060E088E00E94530060E0F3
:1001D00081E00E94530060E08CE00E94530060E0E8
:1001E00080E80E9453000895CF93DF93EC0188814B
:1001F000882339F0219661E00E9453008991811192
:10020000FACFDF91CF910895CF93DF93813091059D
:1002100091F480913601909137018931910529F44B
:1002200010923701109236014BC00196909337011E
:100230008093360145C08230910509F0A1C08091BC
:10024000360190913701009739F489E190E090935D
:1002500037018093360134C0019790933701809322
:1002600036012EC08081981304C09C93C083272F31
:10027000362F31961196E417F507A1F73093330125
:100280002093320185E090E0909335018093340112
:10029000232B91F48091000190910101019790939B
:1002A000010180930001892B59F481E090E0909343
:1002B00031018093300104C0109233011092320159
:1002C00060E080E80E945300CCE1D1E061E08881E9
:1002D0000E94530061E089810E94530061E08A819D
:1002E0000E94530061E08B810E94530061E08C8189
:1002F0000E94530060E080EC0E945300E0913601C0
:10030000F0913701EE5FFE4F61E080810E94530063
:1003100060E087EC0E94530061E086E70E94530092
:1003200061E089E60E94530061E084E60E94530088
:1003300061E081E60E94530061E083E70E94530080
:1003400061E08AE30E9453008091000161E0805DDA
:100350000E94530018C0E0913601F0913701EE5F22
:10036000FE4F90812091320130913301E1E2F1E0C2
:10037000ACE1B1E046E251E0CAE271E060E072CF88
:10038000039749F39DCFDF91CF9108958FEF8AB9FD
:1003900084B917B888B90E948C0080E090E00E9470
:1003A0000401309904C081E090E00E940401319979
:1003B00004C082E090E00E940401329904C083E00E
:1003C00090E00E94040180913001909131010197E9
:1003D00051F02FEF84E39CE0215080409040E1F702
:1003E00000C00000DECF60E081E00E94530086E2A2
:1003F00091E00E94F4002FEF83E294EF21508040BF
:100400009040E1F700C0000080E090E00895F8948B
:02041000FFCF1C
:1004120005006162636465666768696A6B6C6D6E2C
:100422006F707172737475767778797A5F5F5F5FD8
:100432005F706169766147414D45204F56455200D4
:00000001FF
