:100000000C9434000C9451000C9451000C94510049
:100010000C9451000C9451000C9451000C9451001C
:100020000C9451000C9451000C9451000C9451000C
:100030000C9451000C9451000C9451000C945100FC
:100040000C9451000C9451000C9451000C945100EC
:100050000C9451000C9451000C9451000C945100DC
:100060000C9451000C94510011241FBECFEFD8E026
:10007000DEBFCDBF11E0A0E0B1E0EEE8F4E002C0E9
:1000800005900D92AC33B107D9F721E0ACE3B1E0B4
:1000900001C01D92A634B207E1F70E94EE010C9454
:1000A00045020C940000611102C0299801C0299AF0
:1000B0009BB19F70282F207F922B9BB945E04A95DA
:1000C000F1F70000289A95E09A95F1F7000028983A
:1000D00040EF4A95F1F72BB1922F9F7040E1849F3A
:1000E00090011124292B2BB995E09A95F1F7000086
:1000F000289A45E04A95F1F70000289890EF9A95E4
:10010000F1F7611108C0843030F48FE39FE101976B
:10011000F1F700C000000895299828982FEF89EF83
:1001200090E0215080409040E1F700C000008BB18A
:100130008F7080638BB925E02A95F1F70000289A2B
:1001400085E08A95F1F70000289890EF9A95F1F7ED
:100150008FE19EE40197F1F700C0000095E09A95C9
:10016000F1F70000289A25E02A95F1F70000289879
:1001700080EF8A95F1F78FE193E00197F1F700C0E6
:10018000000095E09A95F1F70000289A25E02A955D
:10019000F1F70000289880EF8A95F1F78BB18F7006
:1001A00080628BB995E09A95F1F70000289A25E0D6
:1001B0002A95F1F70000289880EF8A95F1F760E022
:1001C00088E20E94530060E088E00E94530060E0F3
:1001D00081E00E94530060E08CE00E94530060E0E8
:1001E00080E80E9453000895CF93DF93EC0188814B
:1001F000882339F0219661E00E9453008991811192
:10020000FACFDF91CF910895DF92EF92FF920F9393
:100210001F93CF93DF938130910591F48091440136
:10022000909145018931910529F410924501109270
:1002300044015DC00196909345018093440157C0ED
:100240008230910509F0BFC0809144019091450131
:10025000009739F489E190E090934501809344013F
:1002600046C00197909345018093440140C080812E
:1002700098130EC09C9310836F5F7F4F653071059C
:1002800029F4FD2C0E2D2D2F3C2F02C02D2F3C2F9D
:1002900031961196E417F50751F7309341012093F9
:1002A000400170933D0160933C01F0923E01009348
:1002B0003F0185E090E09093430180934201232B1E
:1002C00091F48091000190910101019790930101B7
:1002D00080930001892B59F481E090E090933F01D5
:1002E00080933E0104C0109241011092400160E0F1
:1002F00080E80E945300CCE1D1E061E088810E9457
:10030000530061E089810E94530061E08A810E946C
:10031000530061E08B810E94530061E08C810E9458
:10032000530060E080EC0E945300E0914401F091A2
:100330004501EE5FFE4F61E080810E94530060E066
:1003400087EC0E94530061E086E70E94530061E061
:1003500089E60E94530061E084E60E94530061E058
:1003600081E60E94530061E083E70E94530061E050
:100370008AE30E9453008091000161E0805D0E9449
:10038000530024C0E0914401F0914501EE5FFE4F1F
:100390009081209140013091410160913C01709128
:1003A0003D01F0903E0100913F01E1E2F1E0ACE15E
:1003B000B1E046E251E01AE2D1E0C0E06894DD2409
:1003C000D1F8E12C54CF0397E9F291CFDF91CF918F
:1003D0001F910F91FF90EF90DF9008958FEF8AB9F2
:1003E00084B917B888B90E948C0080E090E00E9420
:1003F0000401309904C081E090E00E940401319929
:1004000004C082E090E00E940401329904C083E0BD
:1004100090E00E94040180913E0190913F01813063
:10042000910591F460E081E00E94530086E291E042
:100430000E94F4002FEF83E294EF2150804090401F
:10044000E1F700C000001EC0029791F460E081E077
:100450000E94530080E391E00E94F4002FEF83E2BA
:1004600094EF215080409040E1F700C000000AC0A6
:100470002FEF84E39CE0215080409040E1F700C0E2
:0E0480000000B7CF80E090E00895F894FFCF21
:10048E0005006162636465666768696A6B6C6D6EB0
:10049E006F707172737475767778797A5F5F5F5F5C
:1004AE005F706169766147414D45204F5645520058
:0C04BE0056432047414E484F5521000096
:00000001FF
